:020000040800F2
:1000000060360020850200080F2D0008AF28000888
:100010000D2D0008BB050008313400080000000069
:10002000000000000000000000000000ED010008DA
:10003000950600080000000031020008A92E000803
:100040009F0200089F0200089F0200089F0200080C
:100050009F0200089F0200089F0200089F020008FC
:100060009F0200089F0200089F0200089F020008EC
:1000700059060008650600089F020008710600087E
:100080007D060008890600089F0200089F020008FC
:10009000BD0500089F0200089F0200089F0200089B
:1000A0009F0200089F0200089F0200089F020008AC
:1000B0009F0200089F0200089F0200089F0200089C
:1000C0009F0200089F0200089F0200089F0200088C
:1000D0009F02000825330008A5330008B13300084B
:1000E0009F0200089F0200089F0200080000000015
:1000F0000000000000000000000000000000000000
:1001000000000000000000009F0200089F0200089D
:100110009F0200089F020008412F00089F0200086C
:100120009F0200089F0200089F0200089F0200082B
:100130009F02000800000000000000009F0200086D
:10014000C90500089F0200089F0200089F020008DE
:1001500000F002F800F03AF80AA090E8000C82449F
:100160008344AAF10107DA4501D100F02FF8AFF27C
:10017000090EBAE80F0013F0010F18BFFB1A43F085
:1001800001031847E45A0000045B0000103A24BF42
:1001900078C878C1FAD8520724BF30C830C144BFEC
:1001A00004680C607047000000230024002500262E
:1001B000103A28BF78C1FBD8520728BF30C148BFCA
:1001C0000B6070471FB51FBD10B510BD00F0BCF926
:1001D0001146FFF7F7FF03F0D7FC00F0DAF903B49C
:1001E000FFF7F2FF03BC00F0E1F90000224B1968B1
:1001F0000868B0E8F00F80F30988BFF36F8F4FF005
:10020000000080F311884EF00D0E704700000000D2
:1002100006480068006880F3088862B661B6BFF3DC
:100220004F8FBFF36F8F00DF00BF00BF08ED00E00E
:10023000EFF30980BFF36F8F0F4B1A6820E9F00FBF
:10024000106008B54FF0500080F31188BFF34F8F56
:10025000BFF36F8F04F09CFC4FF0000080F3118817
:10026000BDE8084019680868B0E8F00F80F3098815
:10027000BFF36F8F704700BF28000020EFF30580A9
:10028000704700000948804709480047FEE7FEE73D
:10029000FEE7FEE7FEE7FEE7FEE7FEE7FEE7FEE736
:1002A00004480549054A064B704700003D2F0008E9
:1002B00051010008603000206036002060320020CC
:1002C0006032002053EA020C00F069802DE9F04B07
:1002D0004FF00006002B1FBFB3FA83F503FA05F4B5
:1002E00024FA05F65E4012BF1643B2FA82F502FA0E
:1002F00005F4C5F120051EBF22FA05FC44EA0C04F2
:10030000203556EA044C4FEA144418BF641C4FF0E1
:1003100000084FF00009904271EB030C39D300291B
:1003200019BFB1FA81F701FA07F6B0FA80F700FABF
:1003300007F6C7F120071EBF20FA07FC46EA0C06A5
:100340002037B6FBF4FCA7EB0507103F07F01F0BA7
:10035000CBF120060CFA0BFB2CFA06F644BFB34691
:100360000026202FA4BF5E464FF0000B5BEA060C70
:1003700008BF4FF0010B19EB0B09ABFB027C48EBFC
:100380000608C01B06FB02CC0BFB03CC71EB0C0177
:10039000C1E70B46024641464846BDE8F08B13B51F
:1003A0004FF000004FF00001AFF30080BDE81C40AB
:1003B0007047032A40F2308010F0030C00F01580E3
:1003C00011F8013BBCF1020F624498BF11F801CB58
:1003D00000F8013B38BF11F8013BA2F1040298BFBD
:1003E00000F801CB38BF00F8013B11F0030300F027
:1003F0002580083AC0F0088051F8043B083A51F8CB
:1004000004CBA0E80810F5E7121D5CBF51F8043BCF
:1004100040F8043BAFF30080D20724BF11F8013B42
:1004200011F801CB48BF11F8012B24BF00F8013BA4
:1004300000F801CB48BF00F8012B704710B5203AF7
:10044000C0F00B80B1E81850203AA0E81850B1E88D
:100450001850A0E81850BFF4F5AF5FEA027C24BF43
:10046000B1E81850A0E8185044BF18C918C0BDE83A
:1004700010405FEA827C24BF51F8043B40F8043B03
:1004800008BF7047D20728BF31F8023B48BF11F8B8
:10049000012B28BF20F8023B48BF00F8012B704712
:1004A00002F0FF0343EA032242EA024200F02CB8C2
:1004B0004FF0000200B5134694469646203922BFFD
:1004C000A0E80C50A0E80C50B1F12001BFF4F7AF48
:1004D000090728BFA0E80C5048BF0CC05DF804EB2A
:1004E000890028BF40F8042B08BF704748BF20F898
:1004F000022B11F0804F18BF00F8012B7047704796
:10050000704770474FF000020429C0F0128010F0CD
:10051000030C3FF4CFAFCCF1040CBCF1020F18BFB9
:1005200000F8012BA8BF20F8022BA1EB0C01FFF76C
:10053000C1BF5FEAC17C24BF00F8012B00F8012B8A
:1005400048BF00F8012B7047754600F02BF8AE4607
:1005500005006946534620F00700854618B020B5CF
:10056000FFF79EFEBDE820404FF000064FF0000769
:100570004FF000084FF0000B21F00701AC46ACE84B
:10058000C009ACE8C009ACE8C009ACE8C0098D46B8
:10059000704710B50446AFF300802046BDE8104018
:1005A000FFF71DBE00487047FC2F002001491820AE
:1005B000ABBEFEE7260002007047FEE7014800F0F0
:1005C000F8B9000080070020014800F0F2B90000EF
:1005D000A807002070B51D4C00254FF44570B4F9F4
:1005E000442094F8511004F0B3F8052003F0F3FA16
:1005F000A089E27C83B2217D4FF4D07003F0BAFF72
:10060000052003F0E8FA94F8760003F0D5FF052002
:1006100003F0E1FA03F0F0FF052003F0DCFA04F048
:100620001BF8052003F0D7FA04F068F8052003F062
:10063000D2FA074C2078411C2170322805D903F0EA
:1006400073FF052003F0C7FA257070BD082D002048
:100650009C00002070470000014800F0D3BD00005E
:100660003C0A0020014800F0CDBD0000F809002040
:10067000014800F0C7BD00002C090020014800F02F
:10068000C1BD000070090020014800F0BBBD0000A2
:10069000B40900207047000003F06EF9054CA0601B
:1006A00003F05EF9E060207902F0D4FE0A2003F046
:1006B00092FAF8E7A800002072B6FEE790F8202032
:1006C000012A07D0022A05D0416A41F48021416203
:1006D00001207047006842690A4342610020704768
:1006E000F0B590F820500468A468012D05D0022DC3
:1006F00003D0416A41F480215DE014F0406F01D1E4
:10070000E50055D5C4F30164022C03D9416A41F4D4
:10071000000150E00125A5401D608D684FF4C073B5
:100720009DB1CE6835434E6845EAC605066803EBC1
:100730000417F5514FF4C275076805EB04150E69EF
:100740007E51097D012905D009E00E88CD6845EA72
:100750004655EBE701684E5946F480764E511179C3
:10076000D579567941EA056195792D0445EA062542
:1007700029434FF4C676056806EB0416A951117893
:10078000D57841EA0561957852782D0445EA022230
:1007900011434FF4C475026805EB0415515100680C
:1007A00003EB0411425842F0010242500020F0BD18
:1007B000416A41F4001141620120F0BD10B590F88A
:1007C0002020012A07D0022A05D0416A41F4802165
:1007D0004162012010BD3B48D0F8002242F00102E6
:1007E000C0F80022D0F8002222F47C52C0F8002287
:1007F000D0F800224B6A42EA0322C0F800220A7DA8
:1008000002F01F0301229A40D0F81C329343C0F833
:100810001C32CB69B3B9D0F80C329343C0F80C3218
:100820008C894B6864F31F434C6900EBC404C4F823
:1008300040320C890B6864F31F434C6900EBC4041D
:10084000C4F84432CB69012B16D1D0F80C321343D3
:10085000C0F80C320C884B6864F31F434C6900EB02
:10086000C404C4F840320C89CB6864F31F434C695C
:1008700000EBC404C4F844328B69002BD0F8043276
:100880000ED01343C0F804320B69002BD0F8143299
:1008900008D01343C0F81432096A012904D008E0D3
:1008A0009343EFE79343F5E7D0F81C121143C0F8E8
:1008B0001C12D0F8001221F00101C0F80012002033
:1008C00010BD000000640040704730B590F8204033
:1008D000012C05D0022C03D0416A41F480215DE057
:1008E0000468002955D02469A40754D04FF4D87463
:1008F000056804EB01142D5915F004059560056891
:100900002D594ED0ED08556005682C5904F00204AD
:10091000D4604FF4DA74056804EB01142D5905F026
:100920000F05156105682D59C5F307259561056803
:100930002C59240C54614FF4DC72046802EB011250
:10094000A4581C700468A458240A5C700468A45855
:10095000240C9C700468A258120EDA704FF4DE72F8
:10096000046802EB0112A4581C710468A458240AFC
:100970005C710468A458240C9C710468A258120E7F
:10098000DA71006881B1016941F020010161002044
:1009900030BDE468A8E7416A41F4001141620120DA
:1009A00030BD6D0D1560AFE7C16841F02001C16039
:1009B000EDE72DE9F05F0546006800244669D0F8B0
:1009C00004908768D0F80CB0D0F810A0D0F8188048
:1009D000F10748D0F90714D001218160B80703D589
:1009E000284600F04EFB0CE0780702D54FF4006477
:1009F00007E0380702D54FF4805402E0284600F0A3
:100A00003FFBF80516D529684FF480708860B8055B
:100A100003D5284600F037FB0CE0780502D544F4F6
:100A2000005407E0380502D544F4804402E028462B
:100A300000F028FBF80316D529684FF48030886051
:100A4000B80303D5284600F020FB0CE0780302D55C
:100A500044F4004407E0380302D544F4803402E053
:100A6000284600F011FB300707D55FEACB6004D5BC
:100A70002968102044F40074C86070074FF008071C
:100A800007D55FEA0B7004D52868C760284600F0D8
:100A9000A5F9B00706D52868C068800702D02846A7
:100AA00000F09EF9700607D55FEACA6004D5296890
:100AB000102044F480640861B00607D55FEA0A702C
:100AC00004D528680761284600F0AAFAF00606D582
:100AD00028680069800702D0284600F0A2FAB00317
:100AE00008D55FEAC96005D5296810204860284606
:100AF00000F098FAF00307D55FEA097004D528687A
:100B00004760284600F0C2FA300446D55FEA4970D3
:100B100040D5F00504D55FEAC87001D044F0010467
:100B2000B00504D55FEA887001D544F00204700571
:100B300004D55FEA487001D544F00404300529D596
:100B400018F0700F26D008F07000402815D006DC91
:100B5000102809D020280AD0302816D10AE05028C1
:100B60000ED0602811D10EE044F008040DE044F0EE
:100B700010040AE044F0200407E044F0400404E0DC
:100B800044F0800401E044F480742868816921F015
:100B900070018161296804204860002C05D0686AD2
:100BA000204368622846FFF78FFEBDE8F09F70B5CE
:100BB000040003D094F8200010B104E0012070BDBF
:100BC000204600F081F82068016841F001010160D1
:100BD00000F070FD0546052604E000F06BFD401BAB
:100BE0000A2811D820684068C007F6D0206801683C
:100BF00021F00201016000F05DFD05460BE000F010
:100C000059FD401B0A2806D9606A40F40030606232
:100C100084F82060D2E7206840688007EFD4207E07
:100C20000128206801683DD021F080010160607ECC
:100C300001282068016838D021F040010160A07EC1
:100C400001282068016833D021F020010160E07E96
:100C50000128206801682ED041F010010160207F3A
:100C600001282068016829D021F008010160607F17
:100C700001282068016824D021F004010160D4E932
:100C800002010843D4E90412114308436168491E74
:100C900008432168C86100206062012084F82000B8
:100CA000002070BD41F08001C0E741F04001C5E780
:100CB00041F02001CAE721F01001CFE741F008011F
:100CC000D4E741F00401D9E7F0B585B000213E4AF0
:100CD000009101910291039103681068394F3B4CD8
:100CE000022503263A49401CBB4232D1106001283C
:100CF00007D1C86940F00070C861C86900F0007091
:100D00000490886940F0080088618869694600F0AD
:100D1000080004904FF480700090204600F0D4FB4F
:100D20004FF40070CDE9000569460396204600F0B7
:100D3000CBFB2848416821F4C04141F0E06141F417
:100D40008041416000220521142000F03FFD142065
:100D500033E0214FBB4232D1CB6943F08063CB619A
:100D6000CB69012803F080630493106007D1C86940
:100D700040F00070C861C86900F000700490886994
:100D800040F0080088618869694600F00800049016
:100D90004FF480500090204600F096FB4FF4005036
:100DA000CDE9000569460396204600F08DFB002240
:100DB0000521402000F00AFD402000F0F9FC05B0BC
:100DC000F0BD00000064004014000020000C014051
:100DD0000010024000000140006800407047000021
:100DE00010B58AB0044600200090014601906B4681
:100DF00002AA2046FFF769FD834884427DD102980C
:100E000040F2B113814CA0F2B11242F2107198423B
:100E10002ED008DCA0F580708F385DD0102873D0FC
:100E2000212843D108E0012A41D0D82A67D0A2F571
:100E3000A0624F3A3AD18EE0BDF90000208088428E
:100E400003DBA0F51C50103800E0081A20806088F1
:100E5000E080BDF8020060809DF8040020819DF8CC
:100E60000600293820719DF80700A07201201BE0C0
:100E7000BDF900002082884203DBA0F51C50103829
:100E800001E02088081A2082608AE082BDF8020012
:100E900060829DF8040020839DF8060029382075A3
:100EA0009DF80700A076022002F07AFC6CE0BDF805
:100EB00000002084608AE084BDF8020060849DF810
:100EC000040020859DF80600293884F824009DF848
:100ED000070084F82A0057E09DF8000084F83A00E3
:100EE000BDF8010040BAA087608CE086BDF8030021
:100EF00040BA60869DF8060002E05FE004E01AE078
:100F000084F834000320CFE79DF8000084F84A00FD
:100F1000BDF8010040BAA4F84C00608EA4F8460069
:100F2000BDF8030040BAA4F842009DF8060084F81A
:100F300044000420B8E79DF8000084F85E009DF8A6
:100F40000100000984F85A00BDF8040040BAA4F872
:100F500058000520A8E72E489DF8001001709DF864
:100F6000011041709DF8021081709DF80310C1704E
:100F70009DF8041001719DF8051041719DF806104F
:100F800081719DF80710C17122490398C84213D19D
:100F90009DF8000000F0030084F86F009DF8010048
:100FA00000F0030084F86A009DF80300A4F86800CC
:100FB000BDF80400A4F860000AB010BD16488442D1
:100FC000FAD10298A0F500700138F5D1134C9DF8C4
:100FD000000084F824009DF8010084F822009DF8A8
:100FE000020084F823009DF8030084F82500BDF872
:100FF000040040BA24F81E0FBDF8060040BA608015
:1010000004F014F9A060D7E780070020542F0020D7
:10101000C800002066EF07EFA8070020C42E0020BC
:10102000704770477047000070B5044690F8200084
:10103000012804D0606A40F40020606218E00220B9
:1010400084F820002068016821F00101016000F0AF
:1010500031FB05460EE000BF00F02CFB401B0A28C8
:1010600008D9606A40F400306062052084F82000EE
:10107000012070BD20684068C007EDD1606270BD7E
:10108000704770477047704770477047704710B59A
:1010900090F821100022022905D00421816380F8F4
:1010A0002020012010BD01680B6823F00E030B60A7
:1010B00001680B6823F001030B6090F84030C46BAB
:1010C000012101FA03F3636080F8211080F82020E9
:1010D000104610BD2DE9F05F90F821100024022980
:1010E00003D004218163012485E001680A6822F0AD
:1010F0000E020A6001680A6822F001020A603F4E8F
:101100003E4FB215DFF8F4C0DFF8F090DFF8ECA046
:10111000DFF8E8B0DFF8E4E00168783F130115027A
:10112000ACF1640CA9F15009AAF13C0AABF1280B0F
:10113000AEF1140E4FF48018B14227D9B9420ED047
:10114000614512D049451DD0514518D0594518D098
:10115000714501D1424615E0294EB14201D101222B
:1011600010E0274E1436B14201D110220AE0244E7D
:101170002836B14206D0224A3C32914201D11A4669
:1011800000E02A461E49091F0A602BE0B94213D02D
:10119000614517D0494522D051451DD059451DD034
:1011A000714501D142461AE0B14202D14FF080723E
:1011B00015E0134EB14201D1012210E0104E143659
:1011C000B14201D110220AE00D4E2836B14206D0BC
:1011D0000B4A3C32914201D11A4600E02A460749A7
:1011E00080394A60012180F82110002180F8201008
:1011F000416B01B188472046BDE8F09F8000024066
:10120000080402402DE9F05FC16B0A6801680B68B1
:10121000046C4FF0040808FA04F8844D844E854F9E
:10122000DFF814C2DFF81492DFF814A2DFF814B26A
:10123000DFF814E218EA020F65D05FEA437862D55E
:101240000A68920603D40A6822F004020A60DFF8F2
:10125000F0814FF48062016808F114081301140250
:10126000414524D9A9420DD0B1420FD0B9421AD07C
:10127000614515D0494515D0514501D1120312E001
:10128000594501D104220EE0714501D140220AE006
:101290006D4D1435A94206D06B4A2832914201D1D6
:1012A0001A4600E022466749091F0A6029E0A94260
:1012B00013D0B14215D0B94220D061451BD0494569
:1012C0001BD0514502D14FF4800217E0414502D1B5
:1012D0004FF0806212E0594501D104220EE07145C1
:1012E00001D140220AE0584D1435A94206D0564A91
:1012F0002832914201D11A4600E022464B49083972
:101300004A60C16A71E04FF0020808FA04F818EA6E
:10131000020F70D05FEA83786DD50A68920606D412
:101320000A6822F00A020A60012180F82110DFF821
:1013300010814FF40072016808F1140813011402BF
:10134000414524D9A9420DD0B1420FD0B9421AD09B
:10135000614515D0494515D0514501D1120312E020
:10136000594501D102220EE0714501D120220AE047
:10137000354D1435A94206D0334A2832914201D165
:101380001A4600E022462F49091F0A6029E0A942B7
:1013900013D0B14215D0B94220D061451BD0494588
:1013A0001BD0514502D14FF4001217E0414502D144
:1013B0004FF0007212E0594501D102220EE0714552
:1013C00001D120220AE0204D1435A94206D01E4A40
:1013D0002832914201D11A4600E0224613490839C9
:1013E0004A60002180F82010816A00291CD0BDE8E5
:1013F000F05F0847FFE70825A540154214D01A07FB
:1014000012D50A6822F00E020A6090F84020C36BE1
:10141000012101FA02F25A60816380F82110002153
:1014200080F82010016BE0E7BDE8F09F0800024063
:101430001C000240300002404400024058000240BC
:101440006C000240080402401C04024030B560B148
:101450001A4B026814219A4209D2194B1344B3FB68
:10146000F1F18900016417490AE0012030BD134BF6
:101470005B421344B3FBF1F1890001640F49083961
:10148000C163022180F82110136843F6F0718B4389
:10149000F0E901142143D0E902452C4321430469BA
:1014A0002143446921438469214319431160002188
:1014B0004163012242770177084630BD08040240AB
:1014C000F8FFFDBF000002402DE9F84FDFF8B891AA
:1014D000002409F1040A0AF1040B23460F270BF13B
:1014E000040EC9E00125A5402A40AA427DD1674EDD
:1014F000D1F804C0ACEB0608B44532D014DCBCF122
:10150000030F3AD009DCBCF1000F2AD0BCF1010F67
:101510001CD0BCF1020F31D11DE0BCF1110F17D06E
:10152000BCF1120F2AD119E0B8F5881F19D006DCDA
:10153000B8F5803F15D0B8F5801F1FD111E0B8F580
:10154000001F0ED0B8F5041F18D10AE0CB6815E0D3
:10155000CB681B1D12E0CB6808330FE0CB680C335F
:101560000CE08B682BB1012B4FF0080303D04561D1
:1015700004E0042302E0056100E00023FF2A01D813
:10158000064601E000F104064FEA840501D9A5F101
:101590002005D6F8008007FA05FC28EA0C0803FAB3
:1015A00005F548EA0508C6F800804D68ED0062D5EB
:1015B000374DAE6946F00106AE61AD6924F0030611
:1015C00005F001050095334D06EB050CDCF80850DD
:1015D000A607360F07FA06F825EA0805DFF8B880EF
:1015E000404503D14FF0000817E044E0DFF8AC803D
:1015F000404502D14FF001080FE0DFF8A4804045DC
:1016000002D14FF0020808E0DFF89880404502D18F
:101610004FF0030801E04FF0040808FA06F848EA22
:101620000508CCF808804D68D9F80060ED034D46F8
:1016300001D5164300E096432E604D68DAF800604D
:10164000AD03554601D5164300E096432E604D6824
:10165000DBF80060ED025D4601D5164300E09643DD
:101660002E604D68DEF80060AD02754601D5164368
:1016700000E096432E60641C0D682A46E5407FF426
:1016800031AFBDE8F88F00000004014000001110E8
:10169000001002400000014000080140000C014021
:1016A00000100140001401400AB1016170470904B3
:1016B000FBE7000001488068704700001800002028
:1016C0000248816802781144816070471800002048
:1016D000074810B5016841F010010160032000F0D7
:1016E00095F80F2000F006F800F03EF8002010BD3D
:1016F0000020024000B5014687B00022362000F0ED
:1017000065F8362000F054F81348C16941F0100123
:10171000C161C06905A900F010000690684600F09C
:101720001DF900F03BF90D494000B0FBF1F10D4807
:101730000B4A491E0260416040F2E7320021C0E9D5
:101740000321816000F0D6FB10B1012007B000BD7D
:10175000044800F01BFCF9E70010024040420F0073
:1017600000100040800A00200F4808B5816941F050
:1017700001018161816901F001010091C16941F0BC
:101780008051C161C069002200F0805000900F219B
:10179000901E00F01BF80548416821F0E06141F01F
:1017A0000071416008BD00000010024000000140CF
:1017B000002809DB00F01F02012191404009800050
:1017C00000F1E020C0F8001170470000F0B40E4BAB
:1017D0001B680C46C3F30223C3F10705042D00D98F
:1017E0000425191D072901D2002300E0DB1E012674
:1017F00006FA05F1491E214099409E40761E16408A
:101800003143F0BC01F015BE0CED00E0064900F0DC
:10181000070208684FF6FF03184040EA0220034A17
:1018200010430860704700000CED00E00000FA056E
:101830002DE9F0470F46050061D0434E306800F0B7
:101840000700B84209D2306820F007003843306002
:10185000306800F00700B84251D128683B4C81073E
:1018600012D5400703D5606840F4E06060602878D6
:10187000000703D5606840F4605060606068A96844
:1018800020F0F000084360602878C00728D068681E
:10189000012810D02168022810D0890700292EDAEB
:1018A000616821F0030101436160FFF703FF804697
:1018B00041F288390DE021688903EFE78901EDE7FE
:1018C000FFF7F8FEA0EB0801494502D90320BDE867
:1018D000F0876068696800F00C00B0EB810FEFD111
:1018E000306800F00700B8420BD9306820F00700DC
:1018F00038433060306800F00700B84201D0012062
:10190000E5E72878400705D56068E96820F4E060DD
:10191000084360602878000706D56068296920F4CC
:10192000605040EAC100606000F058F86168084A01
:10193000C1F30311515CC8400649086006480068BD
:10194000FFF7D8FE0020C2E700200240001002404E
:10195000105C0008240000201C0000200F22026000
:101960000C4A536803F003034360536803F0F00329
:101970008360536803F4E063C36052684FF4E0632C
:1019800003EAD20202610448006800F00700086020
:101990007047000000100240002002400448054942
:1019A00000684968044AC1F30221515CC84070478D
:1019B0002400002000100240205C00080448054973
:1019C00000684968044AC1F3C221515CC8407047AD
:1019D0002400002000100240205C0008F0B523A283
:1019E00089B00FCA04AC84E80F0024A10FC98DE8A8
:1019F0000F0026494A68264802F00C03042B2FD01A
:101A0000082B2DD104A8C2F38343C45CD00329D58D
:101A1000C86A00F00F001DF80020C86AC00316D580
:101A2000C86AC96AC0F30310C1F30321401C891CB2
:101A3000A0FB0223A1FB0416154F0025A1FB070CF8
:101A400006FB07C601FB0561FEF73CFC03E01048FE
:101A50006043B0FBF2F09DF81D10A14200D1400898
:101A600009B0F0BD0B486043FAE700000000040530
:101A70000607080900000000000D00000102030431
:101A800005060708090A0B0C0D0E0F100010024086
:101A900000127A0000093D002DE9F84F040070D0D3
:101AA0002078F14DC00749D06868C0F38100012853
:101AB00007D06868C0F38100022809D16868C003B4
:101AC00006D52868800339D5A0680028E7D035E01E
:101AD000A068B0F5803F0BD010B1B0F5A02F11D0A9
:101AE000286820F480302860286820F4802002E0F4
:101AF000286840F480302860A06890B1FFF7DAFDD4
:101B000006460AE0286840F480202860F0E700BF1D
:101B1000FFF7D0FD801B642876D828688003F7D5AE
:101B20000CE0FFF7C7FD064605E000BFFFF7C2FD6A
:101B3000801B6428F0D828688003F7D42078CB4E27
:101B400080074FF001094FF000073AD5686810F0A0
:101B50000C0F07D06868C0F38100022809D16868BB
:101B6000C00306D42868800715D56069012808D10C
:101B700011E06069B8B1C6F80090FFF79BFD8046A0
:101B800006E042E1FFF796FDA0EB08000228C3D86B
:101B900028688007F6D52868A16920F0F80040EA97
:101BA000C10028600DE03760FFF784FD804605E046
:101BB000FFF780FDA0EB08000228ADD82868800759
:101BC000F6D4207800072ED5A948E169E9B1C0F81C
:101BD0000090FFF76FFD804606E000BFFFF76AFD4B
:101BE000A0EB0800022897D8686A8007F6D5A148BC
:101BF0004FF4FA510068B0FBF1F0009000BF00987C
:101C0000411E0091FAD20EE0B0E00760FFF752FDEE
:101C1000804605E0FFF74EFDA0EB0800022889D8BA
:101C2000686A8007F6D42078400763D5E8694FF0EA
:101C30000008C00009D4E86940F08050E861E86914
:101C40004FF0010800F0805000908B480168C905F2
:101C500012D40168834641F480710160FFF72AFDC8
:101C6000824605E0FFF726FDA0EB0A0064287DD838
:101C7000DBF80000C005F5D5206901280AD008B1BD
:101C8000052813D0286A20F001002862286A20F075
:101C9000040002E0286A40F001002862206941F255
:101CA000883B98B1FFF706FD82460BE0286A40F0BA
:101CB00004002862EEE700BFFFF7FCFCA0EB0A017E
:101CC000594553D8286A8007F6D50CE0FFF7F2FC97
:101CD000824605E0FFF7EEFCA0EB0A01594545D826
:101CE000286A8007F6D4B8F1000F03D0E86920F025
:101CF0008050E861E06AD0B36968C90307D56968B4
:101D0000C1F38101022902D1E96AC9037DD4022805
:101D100008D0E86A20F48030E862B766FFF7CAFCB2
:101D200080463BE02868C00005D5E86A616B00F09A
:101D3000F000884269D1B766FFF7BCFC804605E039
:101D4000FFF7B8FCA0EB0800642874D828680001ED
:101D5000F6D4E86A616B20F0F0000843E862E86AB4
:101D6000216B20F470600843E86201E063E018E052
:101D7000C6F86890FFF79EFC804605E0FFF79AFCE6
:101D8000A0EB0800642856D828680001F6D508E0C2
:101D9000FFF790FCA0EB080064284CD828680001ED
:101DA000F6D4206A90B36968C1F38101022949D051
:101DB0000228376603D0FFF77DFC04463EE0FFF7BC
:101DC00079FC074605E000BFFFF774FCC01B022842
:101DD00031D828688001F7D4606AB0F5803F09D116
:101DE000E86A61680843E862E86AE16820F00F0089
:101DF0000843E862D4E909010843696821F47411D1
:101E000008436860C6F8609001E028E029E0FFF729
:101E100051FC044605E000BFFFF74CFC001B022804
:101E200009D828688001F7D51BE000BFFFF742FC06
:101E3000001B022802D90320BDE8F88F2868800122
:101E4000F4D40EE00128F7D06868626A00F48031AB
:101E5000914204D1A16A00F47010884201D001209F
:101E6000EAE70020E8E700000010024000004242DC
:101E700080044242240000200070004070477047F8
:101E800070B590F83C20012A29D0012480F83C400C
:101E9000022280F83D2003685A689D6822F070068F
:101EA0000A6832435A600F4B02689A420BD0B2F173
:101EB000804F08D00C4B9A4205D00C4B9A4202D06E
:101EC0000B4B9A4204D1496825F080031943916075
:101ED00080F83D40002180F83C10084670BD02208B
:101EE00070BD0000002C01400004004000080040CC
:101EF000000C004010B5040003D094F83D0010B170
:101F000007E0012010BD002084F83C00204600F0CE
:101F10001FF8022084F83D00211D206801F016F80A
:101F2000012084F8460084F83E0084F83F0084F8DD
:101F3000400084F8410084F8420084F8430084F8AB
:101F4000440084F8450084F83D00002010BD0000E6
:101F500008B501680B48B1F1804F0BD00A4A914295
:101F600007D1C16941F00201C161C06900F00200FE
:101F7000009008BDC16941F00101C161C06900F074
:101F80000100F5E7001002400004004090F83D1009
:101F9000012901D001207047022180F83D1001681D
:101FA000CA6842F00102CA6000680D4988420BD03D
:101FB000B0F1804F08D00B49884205D00A498842C9
:101FC00002D00A49884204D1816801F0070106293C
:101FD00003D0016841F0010101600020704700005A
:101FE000002C01400004004000080040000C0040AC
:101FF00070B5044690F83C00012817D0012584F8FC
:102000003C50022084F83D002068826822F077026C
:1020100022F47F4282600868502830D00DDC2028EE
:102020004DD005DC98B310283BD148E0022070BDAC
:10203000302844D0402834D139E0602828D0702896
:1020400006D0B0F5805F2CD0B0F5005F29D10AE052
:10205000CB68D1E90121206800F0B6FF20688168D3
:1020600041F0770109E0CB68D1E90121206800F057
:10207000ABFF2068816841F48041816011E0CA684B
:102080004968206801F054F85021206807E016E004
:10209000CA684968206801F05CF86021206800F097
:1020A0009DFF84F83D50002084F83C0070BDCA6854
:1020B0004968206801F03CF840212068EFE7226879
:1020C00001461046EBE7704770B5044600680169A9
:1020D0004FF00005C943890715D4C168C943890772
:1020E00011D4E91E016101202077206880698007F2
:1020F000204602D0FFF7E7FF04E000F0CBF82046CF
:1021000000F05AF9257720680169C943490717D4B7
:10211000C168C943490713D46FF00401016102206B
:1021200020772068806910F4407F204602D0FFF7B6
:10213000CAFF04E000F0AEF8204600F03DF9257734
:1021400020680169C943090716D4C168C943090752
:1021500012D46FF008010161042020772068C06963
:102160008007204602D0FFF7AEFF04E000F092F8AF
:10217000204600F021F9257720680169C943C90686
:1021800017D4C168C943C90613D46FF010010161A7
:10219000082020772068C06910F4407F204602D0D4
:1021A000FFF791FF04E000F075F8204600F004F915
:1021B000257720680169C943C90708D1C168C943A7
:1021C000C90704D1891E0161204600F0F7F8206894
:1021D0000169C943090609D4C168C943090605D480
:1021E0006FF0800101612046FFF748FE2068016919
:1021F000C943490609D4C168C943490605D46FF0EB
:1022000040010161204600F0E3F820680169C943FC
:1022100089060BD4C168C943890607D46FF0200131
:1022200001612046BDE87040FFF729BE70BD000087
:1022300010B586B0002100910191029103910368CD
:10224000114902221148B3F1804F13D0104CA34220
:102250000ED18B6943F004038B61896901F004019D
:102260000491C021CDE9001269460392FFF72CF9D1
:1022700006B010BD8B6943F004038B61896901F0DE
:10228000040104910321EDE7001002400008014021
:1022900000040040704770B5044690F83C000D46BD
:1022A00001280AD0012084F83C0042B1042A18D049
:1022B000082A2AD00C2A4DD139E0022070BD2068AE
:1022C00000F094FE2068816941F008018161206876
:1022D000816921F004018161206881692A691143C3
:1022E00011E0206800F0AAFE2068816941F40061D5
:1022F00081612068816921F4806181612068816940
:102300002A6941EA0221816124E0206800F0C2FECE
:102310002068C16941F00801C1612068C16921F0EC
:102320000401C1612068C1692A69114311E0206874
:1023300000F0DCFE2068C16941F40061C1612068E1
:10234000C16921F48061C1612068C1692A6941EADB
:102350000221C161002084F83C0070BD10B504006A
:1023600003D094F83D0010B107E0012010BD00201B
:1023700084F83C00204600F01EF8022084F83D005E
:10238000211D206800F0E2FD012084F8460084F859
:102390003E0084F83F0084F8400084F8410084F84F
:1023A000420084F8430084F8440084F8450084F82F
:1023B0003D00002010BD70477047000000680349D1
:1023C000884201D1FFF77CB970470000001000403F
:1023D0007047704770470000F8B5026804461068FF
:1023E000D168536910F00F0F4FF0000553D003F080
:1023F000010601F4907737435FD0C20705D0CA05C4
:1024000003D5226C42F001022264420705D5DA07A7
:1024100003D0226C42F002022264820705D5DA075B
:1024200003D0226C42F004022264020707D501F0B7
:102430002002324303D0226C42F008022264226C54
:10244000002A34D0800604D5880602D5204600F044
:10245000B2FE20684069216CC0F38010090700D4E7
:1024600030B3204600F08FFE2068416949061BD535
:10247000416921F040014161A06BA8B15849416315
:10248000A06BFEF727FE002811D0A06B416B01B0B6
:10249000BDE8F040084783060FD58B060DD52046D2
:1024A000BDE8F84000F087BE2046FFF793FFF8BD77
:1024B0002046FFF78FFF2564F8BD266B2023012EF1
:1024C00052D1C60650D5CE064ED510685068009041
:1024D000506940062AD5A16B086840680004000CCA
:1024E000EAD0A68D8642E7D9E0858869202818D0F1
:1024F000D06820F48070D0602068416921F001012B
:1025000041612068416921F04001416184F83E3019
:1025100025632068C16821F01001C160A06BFEF73F
:10252000B6FDA08DE18D401A81B219E0A08DE18D3C
:10253000401A81B2E08D0028BED00029BCD0D068FE
:1025400020F49070D0602068426922F0010242615C
:1025500084F83E3025632068C26822F01002C26011
:102560002046FFF736FFF8BD05062BD50D0629D509
:1025700094F83D002128F6D1A068B0F5805F01D124
:102580002069B0B1206A411C21622168007848604E
:10259000E08C401E0004000CE084E4D12068C16897
:1025A00021F08001C1602068C16841F04001C16034
:1025B000F8BD206A0088C0F308005060206A801CC3
:1025C0002062E5E74006F3D54806F1D5D1682046FC
:1025D00021F04001D16084F83D3000F062F9F8BD8F
:1025E0007731000870B5040004D094F83D00002550
:1025F00010B106E0012070BD84F83C50204600F088
:1026000023F8242084F83D002068C16821F400519B
:10261000C160204600F02AFE2068016921F4904143
:1026200001612068416921F02A0141612068C16887
:1026300041F40051C1602564202084F83D0084F8F5
:102640003E00002070BD00002DE9F04786B0002458
:1026500000940194029403940546DFF82082D0F898
:1026600000C0874802210322864B202780264FF492
:102670008069C44543D1D0F818C04CF4804CC0F8F0
:1026800018C0D0F818C00CF4804CCDF810C0D0F8A9
:1026900018C04CF0040CC0F818C08069039200F018
:1026A000040004900802CDE90001694698461846E6
:1026B000FEF70AFFCDE90094694640460294FEF712
:1026C00003FFDFF8C88170494046C0E90014C0E943
:1026D0000246C8F81040C8E90547C8F81C40FEF794
:1026E000B5FE08B1FDF7E8FFC5F8388000220421E7
:1026F0002520C8F82450FFF769F8252060E0DFF8AE
:1027000090814FF0100AC4455FD1D0F81CC04CF442
:10271000003CC0F81CC0D0F81CC00CF4003CCDF844
:1027200010C0D0F818C04CF0040CC0F818C0806974
:10273000039200F0040004900420CDE900016946F2
:1027400098461846FEF7C0FE0820CDE90004694609
:1027500040460294FEF7B8FEDFF830814A4908F19E
:10276000440840461431C0E90014C0E90246C8F8E4
:102770001040C8E90547C8F81C40FEF767FE08B1DD
:10278000FDF79AFF414FC5F838808837C8F82450C4
:10279000C7E902463C613C487C61BC612830FC6171
:1027A000C7E9000A3846FEF751FE08B1FDF784FF7D
:1027B0006F630022052126207D62FFF707F826209F
:1027C000FEF7F6FF06B0BDE8F087324B9C45F9D125
:1027D000C36943F48023C361C36903F48023049372
:1027E000836943F0080383618069CDE9009100F0BB
:1027F0000800CDE90320DFF8A08069464046FEF7D7
:1028000063FE4FF40060CDE900046946404602943F
:10281000FEF75AFEDFF874801B4908F1CC084046E9
:102820002839C0E90014C0E90246C8F81040C8E9D8
:102830000547C8F81C40FEF709FE08B1FDF73CFF4C
:10284000164FC5F83880C8F82450C7E902463C61E5
:102850000D487C61BC613C38FC61C7E9000A384620
:10286000FEF7F4FD08B1FDF727FF6F630022052195
:1028700027207D62FEF7AAFF2720A1E7003801404C
:102880000010024000080140580002402C090020BE
:102890000044004000480040000C01403C0A002079
:1028A0007047704710B5012001F095F9FBE7FEE78E
:1028B0000F4810B50D4901600821416000214FF417
:1028C00080228160C0E90312D200426101760122B8
:1028D00042768176C17601774177FEF768F9002864
:1028E00003D0BDE81040FDF7E7BE10BD0064004016
:1028F000800700200F4810B50D4901600821416094
:1029000000214FF480228160C0E90312D2004261AD
:10291000017641768176C17601774177FEF747F9F6
:10292000002803D0BDE81040FDF7C6BE10BD000072
:1029300000680040A8070020194808B5416941F027
:10294000010141614069002200F001000090052171
:102950000C20FEF73BFF0C20FEF72AFF002205218A
:102960000D20FEF733FF0D20FEF722FF0022052188
:102970000F20FEF72BFF0F20FEF71AFF0022052184
:102980001020FEF723FF1020FEF712FF0022052182
:102990001120FEF71BFFBDE808401120FEF708BF1D
:1029A0000010024010B51D499EB00022D1E900017F
:1029B000CDE91C0101211CA801F044F9184C17496C
:1029C0001C22206108316846FDF738FD0021684669
:1029D00001F00DF9114920601C22243107A8FDF7F0
:1029E0002DFD002107A801F002F90C4960601C22AE
:1029F00040310EA8FDF722FD00210EA801F0F7F8E6
:102A00000649A0601C225C3115A8FDF717FD0021C6
:102A100015A801F0ECF8E0601EB010BD985B00084E
:102A2000000000202DE9F04F85B0002634480096C4
:102A3000019602960396816941F0200181618169C6
:102A400001F020010491816941F0100181618169E7
:102A500001F010010491816941F0040181618169F3
:102A600001F004010491816941F0080181618069EC
:102A7000002200F0080004903F212248FEF714FED7
:102A8000DFF884A048F20307002239465046FEF7DB
:102A90000BFEDFF878B04FF4C0580022414658468C
:102AA000FEF702FE4FF40059002249461548FEF792
:102AB000FBFD01243F20CDE90004022569461148B1
:102AC000CDE90245FEF700FD0097CDE901466946D4
:102AD00050460394FEF7F8FCCDF80080CDE901459F
:102AE000694658460395FEF7EFFCCDE90094694628
:102AF0000448CDE90245FEF7E7FC05B0BDE8F08FDC
:102B00000010024000100140000C0140000801408C
:102B100010B58EB000240794089409940A940B947D
:102B20001C2168460C94FDF7C3FC22484FF08041FD
:102B3000016040F2CF21C0E9011440F2CF71C0E939
:102B400003148461FFF7D6F908B1FDF7B5FD4FF422
:102B50008050079007A91748FFF74AFA08B1FDF718
:102B6000ABFD1448FFF7FAFB08B1FDF7A5FD0B9488
:102B70000BA910480C94FFF783F908B1FDF79CFDF1
:102B80006020CDE9000402940022694609480494BB
:102B9000FFF781FB08B1FDF78FFD04226946054868
:102BA000FFF779FB08B1FDF787FD0248FFF740FB0F
:102BB0000EB010BDD007002010B58EB000240794D1
:102BC000089409940A940B941C2168460C94FDF710
:102BD0006FFC23482149016040F2CF21C0E9011474
:102BE00040F2CF71C0E903148461FFF783F908B1A3
:102BF000FDF762FD4FF48050079007A91848FFF7D2
:102C0000F7F908B1FDF758FD1548FFF7A7FB08B124
:102C1000FDF752FD0B940BA911480C94FFF730F906
:102C200008B1FDF749FD6020CDE9000402940022BF
:102C300069460B480494FFF72EFB08B1FDF73CFDF5
:102C4000042269460648FFF726FB08B1FDF734FD6C
:102C50000348FFF7EDFA0EB010BD0000000400407D
:102C6000180800200C4810B50A4901604FF4E13102
:102C70004160002181600C22C160C0E904128161C1
:102C8000C161FFF7AFFC002803D0BDE81040FDF79D
:102C900013BD10BD00380140600800200C4810B57D
:102CA0000A4901604FF416514160002181600C22F5
:102CB000C160C0E904128161C161FFF793FC002883
:102CC00003D0BDE81040FDF7F7BC10BD0044004044
:102CD000A40800200C4810B50A4901604FF4E13106
:102CE0004160002181600C22C160C0E90412816151
:102CF000C161FFF777FC002803D0BDE81040FDF765
:102D0000DBBC10BD00480040E8080020FEE7FEE7FD
:102D10000F4A10B513685C6944F040045C611268A6
:102D2000D36843F01003D3600A4A13681C6824F088
:102D300001041C601468084BA3601368D860106815
:102D400041601068016841F00101016010BD0000A0
:102D5000600800202C09002004380140002801DC14
:102D6000404200B27047000070B5194CB4F9000041
:102D7000FFF7F4FF4FF4E165A84217DCB4F9020055
:102D8000FFF7ECFFA84211DCB4F90400FFF7E6FFFF
:102D9000A8420BDCB4F90600FFF7E0FFA84205DC0F
:102DA000208918B1608908B1002070BD0020208002
:102DB0006080A080E080022121816181A181E18188
:102DC000A082E0822083A076E076A083012070BDFF
:102DD000C42E00202421014800F002B82E2F00202C
:102DE0000F4A10B513685C6944F040045C611268D6
:102DF000D36843F01003D3600A4A13681C6824F0B8
:102E000001041C601468084BA3601368D860106844
:102E100041601068016841F00101016010BD0000CF
:102E2000E8080020F80900200448004070B5044676
:102E30001C4DC00701D0012200E0002201212846DC
:102E4000FEF732FCA00701D5012200E0002202219A
:102E50002846FEF729FC600701D5012200E0002288
:102E600004212846FEF720FC200701D5012200E0BE
:102E7000002208212846FEF717FCE00601D50122B2
:102E800000E0002210212846FEF70EFCA00601D526
:102E9000012200E000222846BDE870402021FEF714
:102EA00003BC00000010014010B5502080F31188D1
:102EB000BFF34F8FBFF36F8F02F0BEF918B1044913
:102EC0004FF080500860002080F3118810BD000092
:102ED00004ED00E070B594B038216846FDF7E8FADB
:102EE00014210EA8FDF7E4FA012500242804CDE9F9
:102EF00002040226CDE908600095059501944FF47F
:102F0000E010CDE90A046846FEF7C6FD08B172B6C6
:102F1000FEE70F20CDE90E064FF48060CDE91040AA
:102F200002210EA81294FEF783FC08B172B6FEE7E8
:102F30000148056714B070BD0000424270470000B0
:102F40000148FFF7C1B80000800A0020F0B5026810
:102F5000194B1A4C1A4D1B4E4FF08047984207D020
:102F6000B84205D0A04203D0A84201D0B04204D15B
:102F700022F0700C4A6842EA0C02984207D0B8422C
:102F800005D0A04203D0A84201D0B04203D122F420
:102F90004074CA6822434C6922F0800222430260D6
:102FA0008A68C2620A688262984201D10969016333
:102FB00001214161F0BD0000002C014000040040EF
:102FC00000080040000C004010B5846842EA03226B
:102FD00024F47F440A432243826010BD826822F0B9
:102FE00070020A4342F007018160704730B5026AFF
:102FF00022F001020262026A4368846924F07305C8
:103000000C682C4322F002058A682A430A4DA84224
:103010000BD122F00805CA6823F440732A434D6996
:1030200022F004021D438B692B434360846149688D
:103030004163026230BD0000002C014030B5026ADD
:1030400022F010020262026A436884690D6824F467
:10305000E64444EA05248D6822F0200242EA051283
:103060000B4DA8420ED1CD6822F0800242EA051233
:103070004D6923F4406343EA85038D6922F04002E1
:1030800043EA85034360846149688163026230BD1D
:10309000002C014030B5026A22F480720262036A99
:1030A0004268C46923F4007324F073050C682C4350
:1030B0008D6843EA05230C4DA8420ED1CD6823F458
:1030C000006343EA05234D6922F4405242EA0512A7
:1030D0008D6923F4806342EA05124260C461496845
:1030E000C163036230BD0000002C014030B5026AAC
:1030F00022F480520262046A4268C3690D6823F4B4
:10310000E64343EA05238D6824F4005444EA053479
:10311000064DA84204D14D6922F4804242EA85124C
:103120004260C36149680164046230BD002C014003
:1031300010B5036A046A24F001040462846924F06F
:10314000F00444EA021423F00A020A438461026292
:1031500010BD10B5036A23F0100303628369046A8B
:1031600023F4704343EA023224F0A00343EA01113E
:103170008261016210BD10B5406A0021C185C18421
:10318000FFF728F910BD0168CA6822F49072CA607E
:1031900001684A6922F001024A61016B012904D1E8
:1031A0000168CA6822F01002CA60202180F83E102F
:1031B00000210163704708B590F83E10222901D024
:1031C000022008BD82684FF480539A4201D1016900
:1031D00021B1816A9A421BD04AB10AE00268816A31
:1031E0005268C2F308020A80816A891C08E00269F9
:1031F00072B10268526802F07F020A70816A491C4B
:103200008162C18D491E0904090CC18503D019E0F2
:1032100002685268F1E70168CA6822F02002CA60B9
:103220000168CA6822F48072CA6001684A6922F0A3
:1032300001024A61202180F83E10016B012903D070
:10324000FFF72EFB002008BD002101630168CA685A
:1032500022F01002CA6001680A68D20602D50A6824
:1032600049680091818DFFF7B4F8EBE770B504462B
:1032700000680169E26821F440511143016121694C
:10328000A0680843616908432168CA6841F20C6379
:103290009A430243CA6020684169A26921F44071DF
:1032A000114341611E492068884202D1FEF786FB26
:1032B00001E0FEF773FB00EBC00101EB0012606858
:1032C00064218000B2FBF0F3B3FBF1F36FF018065A
:1032D0007343B2FBF0F5B2FBF0F605EB8305322346
:1032E00003EB0515B5FBF1F5B6FBF1F605F0F005BE
:1032F00005EB0615B2FBF0F6B2FBF0F0B0FBF1F017
:103300006FF01802504306EB800003EB0010B0FB97
:10331000F1F0216800F00F002844886070BD0000C3
:103320000038014038B51A4800680168890603D59D
:1033300001684068009025E016490968C90621D552
:1033400001684068144C00902068016821F0010178
:103350000160206840681149C0F1240080B20880F3
:10336000202807D10E4901F1460000F00DFB002096
:1033700000F016FA2168242048602068016841F0B6
:1033800001010160BDE838400148FFF725B80000A1
:1033900060080020003801402C090020C4000020F3
:1033A000C42E00200148FFF717B80000A408002031
:1033B0001A4818B400680168890603D50168406896
:1033C000009027E016490968C90623D501684068BE
:1033D000144A00901068016821F00101016013682F
:1033E00058681149C0F1240080B2488005280AD1EC
:1033F0000E480478A0F140010C8044784C80847819
:103400008C80C078C880242058601068016841F022
:103410000101016018BC0148FEF7DEBFE80800208A
:1034200000480040F8090020C40000202E2F002092
:10343000FEE70907090E002804DB00F1E02080F810
:103440000014704700F00F0000F1E02080F8141D18
:1034500070470000124A30B41378547853EA0401DC
:103460000BD010484FF4004163B19478641CE4B26F
:103470009470322C09D200220AE01070C8205070DB
:1034800030BC7047641E5470F5E7642C03D20122EF
:1034900030BCFEF709B9002090705B1E1370EFE797
:1034A000A8000020000C014000B58BB000200121D5
:1034B000CDE90601089100900190029003900590DB
:1034C000049069460E48FDF779F90D48FDF7ACFD0B
:1034D00002210B48FDF7F2F80E20099005900848EC
:1034E00069462830FDF76AF905482830FDF79CFD4C
:1034F000034802212830FDF7E1F80BB000BD0000C1
:10350000800700200EB500F02FFA8F4C606000F0AD
:103510002FFA606000F034FA206400F01DFAA06613
:1035200000F02AFADFF824B24FF001094FF0A508A5
:103530004FF0000A4FF4FA670A26206084F81480DE
:1035400084F8288084F85190206845460089012835
:1035500003D1002001F01CF9F0B120680089022895
:1035600003D0002001F014F920B1206890F8240065
:1035700001287DD084F8BCA0C4F80CA0C4F820A019
:1035800084F814A084F828A084F813A084F827A055
:10359000504684F851A099E0452084F8BC0020688A
:1035A000B0F9061011F5487F02DA0088002865D0CE
:1035B00001F03CFECBF804002068B0F90610B1F52C
:1035C000487F02DD0088002864D001F02FFECBF890
:1035D00008002568B5F904000090002819DBB5F94A
:1035E0001000A0F57A7002F069F90190009802F0DD
:1035F00065F9574902F064F8019902F08BF95549D1
:1036000002F088F902F01EF900B2E060206284F84E
:1036100076A0B5F90200009000281EDAB5F9120074
:10362000A0F57A7002F04AF901900098404202F049
:1036300045F9474902F044F8019902F06BF946490F
:1036400002F03EF802F01AF9C0B284F876000928B8
:1036500003D9C4F820A0C4F80CA0B5F9000002F00A
:103660002DF93B4902F02CF83C4902F053F900E0F7
:103670001CE002F0E7F8A4F8440048E001F0D6FDB1
:10368000DBF80410401AB84296D9AA20E07484F8F6
:10369000270091E701F0CAFDDBF80810401AB84294
:1036A00097D95520E07484F8270092E784F8BC503D
:1036B00001F0BCFD2168D1F82620801AB0F57A7F90
:1036C00009D9C4F80CA05046C4F820A0A4F84400BE
:1036D00084F876001BE011F8230FE07411F8050957
:1036E00084F82700B1F90000E060B1F90000206221
:1036F000B1F9020000EBC000400090FBF6F0A4F826
:103700004400087984F87600C87984F8B80000F09D
:1037100027F894F8B800FFF789FB6068B0F900005B
:10372000C0EB0010800090FBF6F0C0EB801000EBC7
:10373000400090FBF7F0A4F8BA00FCF74BFF0A201A
:1037400000F049FAFAE60000082D00209C00002055
:1037500000007A440000A04000002041000007441F
:103760000E4841F270720021C368934200DDC160CF
:10377000036A934200DD016290F87620782A01D92D
:1037800080F87610B0F944204FF434739A4202DC8A
:1037900052429A4201DDA0F844107047082D0020E3
:1037A00000EBC00110B5114800EB81042068606097
:1037B00001F03CFD2060E17C4A0603D521F0400188
:1037C000E174E060A06958B1804748B1E07C40F006
:1037D000A000E074206A002806D0BDE81040004731
:1037E000E07C20F08000E07410BD0000C82D0020B7
:1037F000F0B589B00446242219496846FCF71EFE3C
:103800000022184D10466B4602EB420602EBC20145
:1038100005EB810133F816C00F8A03EB46066CF303
:103820000B070F82B6F802C0B1F81170521C6CF38E
:103830000F17A1F811703779CE7C886167F34406C1
:10384000C861086246F0E106CE7448610C604C60C5
:103850008C60D2B2CC60062AD6D309B0F0BD00008D
:10386000285C0008C82D002001F0E0FC374F78608C
:10387000FFF7BEFF482001F0D7F84FF00608344D9F
:1038800001F0D4FC786087F8008095F8EB00002404
:1038900020F0600085F8EB0004EBC40005EB800627
:1038A000F07CC10747D032687968B6F810C08B1A2F
:1038B000CCF30B0C63451DD9820603D440F06000A5
:1038C000F074B1603978F07C01EBC10105EB810146
:1038D000C0F34300C97CC1F34301884200D93C7066
:1038E00095F8EB0040F0600085F8EB00F06910B34C
:1038F000804720E0F36820F04000C91AB6F8113084
:10390000B1EB131F03D240F02000F07413E0F07409
:10391000010602D540F0200001E020F02000F07404
:103920007068824207D9101A01F0E0FF0146094889
:1039300001F0C6FE7061641C062CADDB0F2001F0A7
:1039400073F8002000F044FFB86099E7B800002049
:10395000C82D002000007A4400487047A42F0020A2
:1039600000487047082D002000487047542F002061
:1039700000487047642F002000487047C42E002084
:1039800000487047842F00202DE9F05F0C46002886
:1039900079D0002C77D000210A46835C521C194450
:1039A00089B21E2AF9DB4FF6FF7251400278202AB5
:1039B0006AD14278402AFBD1837FCAB29A42F7D1BA
:1039C000C27FB2EB112FF3D18178C27802F00F02DF
:1039D00041EA022323800179427902F00F0241EA91
:1039E0000221618089468179C27902F00F0241EAA1
:1039F0000221A1808A46017A427A02F00F0241EA4E
:103A00000228A4F80680817AC27A02F00F0241EA05
:103A100002252581017B427B02F00F0241EA02224E
:103A20006281817BC67B06F00F0641EA0621A181F7
:103A3000067C477C07F00F0746EA0726E681877C6D
:103A400090F813C00CF00F0C47EA0C272782077D73
:103A5000407D4FF47A7E00F00F0047EA002060823C
:103A6000012002274FF4FA6C754501D1208102E054
:103A7000654500D1278140F2DC554FF0030B7245BC
:103A800003D1608109E077E072E0624501D167818E
:103A900003E0AA4201D1A4F80AB07246914201D1D2
:103AA000A08107E0614501D1A78103E0A94201D1CE
:103AB000A4F80CB0964201D1E08102E0664500D145
:103AC000E781184601F0FAFE2C4D294601F0EEFF81
:103AD0002B4F394601F0F4FDDFF8A8B0594601F04C
:103AE00019FF01F0AFFE06B22680484601F0E6FE5F
:103AF000294601F0DBFF394601F0E2FD594601F0AD
:103B000009FF01F09FFE6080504601F0D7FE594644
:103B100001F0CCFF01F096FEA080404601F0CEFE01
:103B2000294601F0C3FF394601F0CAFD594601F0AC
:103B3000F1FE01F087FEE0803046FFF70FF9002527
:103B40000A2800DA2580B4F90200FFF707F90A28ED
:103B500000DA6580B4F90400FFF700F9322800DAD2
:103B6000A580B4F90600FFF7F9F8322800DAE580FD
:103B7000BDE8F05FFFF7F8B8BDE8F09F0080BB44F8
:103B80000000FA4300007A44FDF7A2FDFFF7A2F916
:103B9000FEF748FFFEF7D0FEFEF78AFEFEF7AAFE0C
:103BA000FEF7B6FFFFF75EF8FFF778F8FFF792F839
:103BB000FFF702F800F0B2FCFFF70CF9FFF774FC16
:103BC000FEF7F0FE00F00EF8FEE701460020842923
:103BD00000D0C81C704710B500B9012000F024FFC8
:103BE000002010BD10B500F087FF002010BD7FB58C
:103BF0000D4604464169B0F9080081B1A16971B16F
:103C0000FFF7E3FFD4E905128DE80700D4E90010BF
:103C10002B46226901F0D1FA039004B070BDFFF782
:103C2000D4FF03A9CDE90001208A2B4682B2D4E952
:103C3000001001F095FA012801D00020EDE703986B
:103C4000EBE700001CB511C86CB1CDE900040129F7
:103C500007D0002013460246012109A001F052FCC2
:103C60001CBD0120F6E70090012907D00020134673
:103C70000246012102A001F02BFC1CBD0120F6E749
:103C8000000000002DE9F0411A4C0F460546666918
:103C90002168002081F852002068001D00F084FD9A
:103CA00038B9206890F82C1001208840A169814320
:103CB000A161681C07D137B12168BDE8F0410E4809
:103CC000091D00F0D1BD20683544B542456021682A
:103CD00005D2A068BDE8F041091D00F0ADBD6068E7
:103CE000091D00F0A9FD206B854200D22563BDE8C7
:103CF000F081000028000020E40B00202DE9F041B5
:103D0000054600F0BDFD2E4C2069401C2061206856
:103D10002C4F10B1E06940B32DE0256020690128E7
:103D200029D1002606EB860007EB800000F076FD27
:103D3000761C072EF6D323488C3000F06FFD214807
:103D4000A03000F06BFD1F48B43000F067FD1D4847
:103D5000C83000F063FD1B48DC3000F05FFD1948FF
:103D60008C3060601430A06005E02068E96AC06AA9
:103D7000884200D82560E06A401CE062E96A0120C0
:103D8000A26988401043A06101EB810007EB80002D
:103D9000291D00F069FD00F093FDE06900280CD0BA
:103DA0002068E96AC06A884207D207494FF080500C
:103DB0000860BFF34F8FBFF36F8FBDE8F081000045
:103DC00028000020080B002004ED00E038B500F0CA
:103DD00057FD104CA068C8B90F4800F01FFD0E48F1
:103DE000143000F01BFD0C482060143060600A4B5A
:103DF00000202833009003F1480210210A2000F02F
:103E000049FFA06010B105A100F0D8FDBDE8384021
:103E100000F056BD64000020F80B0020546D725174
:103E20000000000030B4026C0B46002A0BD0C168C1
:103E30001144C1604468A14201D30168C16030BC33
:103E40001846FCF7B6BA30BC70472DE9F041856BD7
:103E5000174604460026026C82B1C7B1E068FCF741
:103E6000A8FAE168206C091AE1602268914202D246
:103E70006168081AE060022F16D017E02068A8B920
:103E8000606801F03DFA0646002060600EE0A06820
:103E9000FCF78FFA216CA0680844A0606168884232
:103EA00004D32068A06001E005B16D1E6D1CA56300
:103EB0003046BDE8F08110B5044690F8510058B185
:103EC00001280CD002280FD0502080F31188BFF3B6
:103ED0004F8FBFF36F8FFEE7206B00F005FD20468C
:103EE000BDE8104000F000BD10BD000010484FF4C8
:103EF0000051420706D0C01D0D4920F00700411AAD
:103F0000C1F500510B4A00230144C2E900030839FE
:103F1000103A21F0070111604B600B600B1AC0E9E9
:103F2000001393604FF000405360D0607047000072
:103F3000080D002088000020144E154CA6F1C8077B
:103F40004FF08058DFF84C9012E000BF00F098FC72
:103F5000F068C568281D00F027FC2069401E20611C
:103F6000E068401EE06000F0ABFC2846FFF7A3FFCE
:103F7000E0680028EAD138680128F9D9C9F800803A
:103F8000BFF34F8FBFF36F8FF2E70000D00B00201D
:103F90002800002004ED00E00346009829B10260EB
:103FA000C0E90F31012100F0A9BE0060F8E72DE95A
:103FB000F0470E46DDE9098417468246910099468E
:103FC000089DA522206BFCF76BFA6FF00301206BB4
:103FD00001EB8701084420F00707780707D050203D
:103FE00080F31188BFF34F8FBFF36F8FFEE7221866
:103FF000315C82F83410315C11B1401C1028F6D3CA
:10400000002684F84360072D00D30625E562C4E945
:104010001156201D00F00DFC04F1180000F009FC01
:104020002461C5F107006462A061E66484F8506011
:1040300084F852604A465146384600F05DFA2060E6
:10404000B8F1000F01D0C8F80040BDE8F0872DE9B5
:10405000F0471E46DDE9089417460D0080460ED055
:10406000002C14D0FFF7B2FEC4F80080C4E9065754
:10407000C4E90869201DBDE8F04700F0DABB502014
:1040800080F31188BFF34F8FBFF36F8FFEE7BDE85A
:10409000F087000030B5114900E011460A688242FD
:1040A000FBD34B685C18844203D1406818444860D5
:1040B000084643681C18944209D1084C103C2468F7
:1040C000A24209D052681A4442600A68126802602B
:1040D000814200D0086030BD0460F9E7880000200C
:1040E00070B5002441600B4D0061914206D8D11A91
:1040F0008269914206D2011D686807E09A4203D2A4
:10410000994201D3012403E0011D286800F094FBCB
:10411000204670BD6400002010B5044600F0B0FBDE
:10412000A06B28B15FF0000400F0CAFB204610BD70
:104130000124F9E730B589B0304D55E004980028E6
:1041400006DADDE90601059A9047049800284BDB62
:10415000069C606910B1201D00F026FB02A800F04B
:10416000B9F8024604980A283ED2DFE800F00505B7
:10417000053D263705053D260598A16903460144FE
:104180002046FFF7ADFF00B3616A20468847E0692B
:10419000012829D1002000900598A1690023421828
:1041A0001946204601F0F6F978B9502080F31188BD
:1041B000BFF34F8FBFF36F8FFEE70598A06128B163
:1041C000811813462046FFF78BFF0DE0502080F347
:1041D0001188BFF34F8FBFF36F8FFEE794F828006D
:1041E00010B9204600F080FB002204A9A86800F066
:1041F000D7FE0028A2D109B030BD00006400002025
:104200002DE9FC410F46054600F0BAFC01A800F07C
:1042100061F80446019818B101F0F8F8BDE8FC8196
:10422000224EAFB170680068A8B30027291B3A4638
:10423000B06800F0D7FB01F0E9F80028EED11C4986
:104240004FF080500860BFF34F8FBFF36F8FE5E7EB
:10425000A542EBD801F0DAF830682746C068C46898
:10426000201D00F0A1FAE069012810D1A0692B46B9
:1042700041193A462046FFF733FF40B1002003467C
:10428000014600902A46204601F084F920B1616A77
:1042900020468847C2E707E0502080F31188BFF32B
:1042A0004F8FBFF36F8FFEE70127BFE76400002049
:1042B00004ED00E006484168096829B14168C96811
:1042C000C9684968016370474FF0FF31FAE70000A1
:1042D0002800002070B5054600F0A8FF064E0446F1
:1042E0003069844203D200F009F8012000E0002088
:1042F00028602046346170BD64000020F8B5194D77
:104300001FE0C068C4680668201D00F04DFA616AAD
:1043100020468847E069012813D1A0693044B042A3
:1043200006D924616060211D286800F085FA08E044
:1043300000200346014600903246204601F02AF94B
:1043400038B1286801680029DBD16968C5E9001027
:10435000F8BD502080F31188BFF34F8FBFF36F8FEC
:10436000FEE700006400002008484068401C4FF051
:10437000500080F3118804D0BFF34F8FBFF36F8FCD
:10438000FEE7BFF34F8FBFF36F8FFEE79000002073
:10439000074C2068016841B1C0680021D0F80000D6
:1043A000FFF72EFFFFF7C6FEF3E701210020F7E736
:1043B000640000202DE9F041044600F061FA94F910
:1043C000455004F1240609E0606A48B1304600F027
:1043D000E3FF08B100F056FB6D1E6DB2002DF3DC5B
:1043E0004FF0FF3684F8456000F06AFA00F048FAB2
:1043F00094F9445004F1100709E0206948B13846A7
:1044000000F0CAFF08B100F03DFB6D1E6DB2002D3B
:10441000F3DC84F84460BDE8F04100F051BA0000DC
:104420002DE9F0410546002700F0AAFB314E306827
:1044300008B9FFF75BFDF06805424BD1C5B30835FD
:1044400068070ED005F00700C0F1080005446807B2
:1044500007D0502080F31188BFF34F8FBFF36F8FC9
:10446000FEE72DB37068854234D8224810300146EB
:104470000C6801E020460C466168A94202D221681E
:104480000029F7D131688C4224D007682168016087
:1044900060680837411B10290FD96019420708D0FE
:1044A000502080F31188BFF34F8FBFF36F8FFEE76B
:1044B00010E041606560FFF7EDFD61687068401ACB
:1044C0007060B268904200D2B060F0680143002092
:1044D000C4E9000100F09AFF780707D0502080F36C
:1044E0001188BFF34F8FBFF36F8FFEE73846BDE8EB
:1044F000F08100007800002010B5031F4FF0807499
:104500001C601B1F21F001011960191F024B0B6079
:10451000143940380A6010BD69430008242101485D
:10452000FEF7F6BB0A2F00200F4808B5992101605D
:10453000002108228160C0E903120C4818226B4652
:10454000027016224270322282706A22C270DA220F
:104550000271202242718171C171024602490448F0
:10456000FCF7BEF808BD0000E42F0020D0000020BA
:10457000A807002038B50D4D0024AC602860082045
:10458000C5E903400A48017042708370190AC1707E
:1045900004714471892181717821C17102466B4691
:1045A00029460448FCF79CF838BD0000E42F0020A1
:1045B000D00000208007002008B50C4A4FF4597144
:1045C0000823116000219160C2E90313084A6B4679
:1045D000107051709170D170117151719171D171D0
:1045E00002490448FCF77CF808BD0000E42F0020D5
:1045F000D000002080070020134808B540F21121A8
:10460000016000218160C160082101610F491048EB
:1046100091F8BA20027091F8BB2042700A4A903A91
:10462000138883701B0AC370938F03711B0A437135
:1046300092F84E208271C97CC17102466B460249D4
:104640000448FCF74DF808BDE42F0020082D002099
:10465000D0000020A807002038B52448002540F2EB
:104660001221856001600821C0E903512048214CD6
:1046700010F8B81F217000796070A570012000F05B
:1046800087F80028A07802D040F0010001E000F097
:10469000FE00A070052000F07BF80028A07802D072
:1046A00040F0020001E000F0FD00A070032000F0E7
:1046B0006FF80028A07802D040F0040001E000F07C
:1046C000FB00A07009486B4690380A4A017AE170F5
:1046D00090F85910217190F858006071A571E5713A
:1046E00002490548FBF7FCFF38BD0000E42F00201D
:1046F000082D0020D0000020A8070020114808B590
:104700004FF4E061016000218160C1600821016116
:104710000D486B4600F1080102780A7042784A7031
:1047200082788A70C278CA7002790A7142794A71B5
:1047300082798A71C079C8710A4602490348FBF739
:10474000CFFF08BDE42F0020C8000020A8070020EC
:1047500038B50C4C0023A36020600820C4E9033066
:1047600009480170110A41708270C370037143716E
:104770008371C37102466B4621460448FBF7B0FFC4
:1047800038BD0000E42F0020D0000020800700206A
:10479000044900EBC00001EB8000C07CC0F3401076
:1047A00070470000C82D0020D0E9013201699A60ED
:1047B000D0E901235A604A68824201D182684A6086
:1047C000002202610868401E086008687047000007
:1047D00008B9064800680021006B01E0401C491C34
:1047E0000278A52AFAD0C1F38F0070472800002074
:1047F000034B036003F15400086080201060704791
:10480000D8000020044B036003F1540008604FF40B
:1048100080701060704700002C03002000F1080138
:104820004FF0FF32C0E90112C16001610021016057
:10483000704700210161704730B50B685A1C02D0E7
:1048400000F1080202E0026904E02246546825688B
:104850009D42FAD953684B6099608A605160086143
:104860000168491C016030BD42684A6093688B60F2
:1048700093685960916008610168491C0160704744
:10488000502080F31188BFF34F8FBFF36F8F0A4919
:104890004868401C486001280CD10848006810F0A6
:1048A000FF0F07D0502080F31188BFF34F8FBFF365
:1048B0006F8FFEE7704700009000002004ED00E0DD
:1048C0000849486828B1401E486001D180F311882A
:1048D0007047502080F31188BFF34F8FBFF36F8F65
:1048E000FEE700009000002070B5002827D0144D8E
:1048F000A0F108046168E868014207D1502080F304
:104900001188BFF34F8FBFF36F8FFEE722683AB174
:10491000502080F31188BFF34F8FBFF36F8FFEE7F6
:104920008143616000F02CF9606869680844686040
:104930002046FFF7AFFBBDE8704000F067BD70BDDB
:10494000780000204FF0E0200021016181610549DD
:104950004FF47A720968B1FBF2F1491E41610721F7
:10496000016170472400002010B5FBF787FC114956
:1049700010280ED300F1E02090F8F0030A7890425E
:1049800007D2502080F31188BFF34F8FBFF36F8F92
:10499000FEE709480068896800F4E060884207D9AA
:1049A000502080F31188BFF34F8FBFF36F8FFEE766
:1049B00010BD0000900000200CED00E010B5084B89
:1049C000002200BF53F832401CB1521C082AF9D310
:1049D00010BD43F8321003EBC201486010BD000067
:1049E000C80A002070B515460E460446FFF748FF7A
:1049F00094F944100020491C01D184F8440094F932
:104A00004510491C01D184F84500FFF759FFA06B00
:104A100028B92A46314604F1240000F051F8204616
:104A2000BDE87040FFF7C6BC10B5020014D00F48B7
:104A3000806B38B1502080F31188BFF34F8FBFF3E4
:104A40006F8FFEE700F09CF800211046FFF71AF97F
:104A500000F0DCFC002807D105494FF080500860C9
:104A6000BFF34F8FBFF36F8F10BD000028000020F1
:104A700004ED00E002498A6A0260496941607047BA
:104A800028000020014901204862704728000020CA
:104A900010B50C4650B1094909681831FFF7CCFE32
:104AA0002046BDE810400121FFF7ECB8502080F30C
:104AB0001188BFF34F8FBFF36F8FFEE728000020F0
:104AC00070B514460D4668B10A4909681831FFF7F8
:104AD000CBFE0CB14FF0FF3521462846BDE87040B3
:104AE000FFF7D0B8502080F31188BFF34F8FBFF38A
:104AF0006F8FFEE72800002030B587B000240394B4
:104B000005AA04A903A80494FFF772FEDDE90301D6
:104B10000094CDE90110002315A11748059A00F073
:104B20004CFB164D002868631FD000F003FD0128E0
:104B300009D0401C19D1502080F31188BFF34F8F4A
:104B4000BFF36F8FFEE7502080F31188BFF34F8FC4
:104B5000BFF36F8F4FF0FF3028630120E8616C6175
:104B600007B0BDE8304000F041B807B030BD0000EC
:104B700049444C4500000000393F0008280000204F
:104B80000248816B491C81637047000028000020A7
:104B90001448816B11B101214162704700214162CB
:104BA0008169B1FA81F1C1F11F0101EB81020E4966
:104BB00051F822306BB101EB820101F108034A6820
:104BC00052684A609A4201D152684A60D1680160D5
:104BD0007047502080F31188BFF34F8FBFF36F8F62
:104BE000FEE7000028000020080B00201CB5264925
:104BF00008780190FF20087008788DF800009DF873
:104C000000009DF8002000F0F000904207D05020F6
:104C100080F31188BFF34F8FBFF36F8FFEE79DF8CE
:104C200000001A4B00F0500018700720986005E053
:104C30009DF8002052008DF80020401E9DF80020B5
:104C40001206F5D49860032807D0502080F311880D
:104C5000BFF34F8FBFF36F8FFEE74FF44070986044
:104C6000019808700A48016841F470010160016808
:104C700041F070410160FFF765FE00205860FBF7CE
:104C8000C7FA00201CBD000000E400E090000020F6
:104C900020ED00E038B5049D18B153B1CAB181B11F
:104CA00020E0502080F31188BFF34F8FBFF36F8F48
:104CB000FEE7502080F31188BFF34F8FBFF36F8F53
:104CC000FEE7502080F31188BFF34F8FBFF36F8F43
:104CD000FEE739B1502080F31188BFF34F8FBFF347
:104CE0006F8FFEE748241C46012384F846302B468C
:104CF0000094FFF751F9204638BD000070B50D460D
:104D0000040025D0FFF7BCFDD4E90F20216802FB89
:104D1000001161600021A1632168A1600A46D4E905
:104D20000F01401E00FB0121E16021464FF0FF30E2
:104D300001F8440F487004F110008DB1FFF76EFDCB
:104D400004F12400FFF76AFDFFF7BAFD012070BDF2
:104D5000502080F31188BFF34F8FBFF36F8FFEE7B2
:104D600021690029F0D000F017FB0028ECD004499D
:104D70004FF080500860BFF34F8FBFF36F8FE3E7B2
:104D800004ED00E02DE9FF4782B01D468A464FF052
:104D90000008040003D0BAF1000F08D011E0502041
:104DA00080F31188BFF34F8FBFF36F8FFEE7206C46
:104DB00038B1502080F31188BFF34F8FBFF36F8F4E
:104DC000FEE7022D0AD1E06B012807D0502080F3C6
:104DD0001188BFF34F8FBFF36F8FFEE700F018FA13
:104DE0003F4F4FF000094FF0805648B9049838B152
:104DF000502080F31188BFF34F8FBFF36F8FFEE712
:104E0000FFF73EFDA06BE16B884207D3022D05D072
:104E10000498D0B1B8F1000F1AD01EE02A465146CE
:104E20002046FFF712F8616A19B104F1240000F07E
:104E3000B3FA20B13E60BFF34F8FBFF36F8FFFF720
:104E40003FFD012006B0BDE8F087FFF739FD22E005
:104E50006846FFF70FFE4FF00108FFF731FDFFF73F
:104E60008FFEFFF70DFD94F94400401C01D184F83A
:104E7000449094F94500401C01D184F84590FFF717
:104E80001FFD04A9684600F027F930B12046FFF75E
:104E900091FA00F0BBFA0020D4E7FFF7F1FCA06B19
:104EA000E16B884213D1FFF70BFD04F11000049968
:104EB000FFF7EEFD2046FFF77DFA00F0A7FA002885
:104EC0009ED13E60BFF34F8FBFF36F8F98E7FFF720
:104ED000F7FC2046FFF76EFA00F098FA90E7000022
:104EE00004ED00E02DE9F0471F4690468946040096
:104EF00003D0B9F1000F08D011E0502080F31188E1
:104F0000BFF34F8FBFF36F8FFEE7206C38B1502097
:104F100080F31188BFF34F8FBFF36F8FFEE7022F2F
:104F20000AD1E06B012807D0502080F31188BFF32D
:104F30004F8FBFF36F8FFEE7FFF716FD5020EFF3A3
:104F4000118680F31188BFF34F8FBFF36F8FA06B73
:104F5000E16B884206D3022F04D0002086F311882B
:104F6000BDE8F08794F945503A4649462046FEF799
:104F70006CFF681C04D06D1C84F845500120EDE7DF
:104F8000606A0028FAD004F1240000F005FA002835
:104F9000F4D0B8F1000FF1D00121C8F80010EDE70E
:104FA0002DE9F747002683B08A46040003D0BAF102
:104FB000000F08D011E0502080F31188BFF34F8F0D
:104FC000BFF36F8FFEE7206C38B1502080F311885B
:104FD000BFF34F8FBFF36F8FFEE700F019F9DFF8D3
:104FE000F4804FF000094FF0805748B9059838B168
:104FF000502080F31188BFF34F8FBFF36F8FFEE710
:10500000FFF73EFCA56BC5B151462046FEF70AFFEF
:105010006D1EA563206950B104F1100000F0BCF9C9
:1050200028B1C8F80070BFF34F8FBFF36F8FFFF741
:1050300047FC012006B0BDE8F087059808B11EB115
:1050400006E0FFF73DFC27E06846FFF713FD012669
:10505000FFF736FCFFF794FDFFF712FC94F94400CC
:10506000401C01D184F8449094F94500401C01D1C2
:1050700084F84590FFF724FC05A9684600F02CF859
:10508000002820460AD0FFF795F900F0BFF9204626
:10509000FFF742F80028B3D00020CBE7FFF73CF839
:1050A00090B104F124000599FFF7F2FC2046FFF7C8
:1050B00081F900F0ABF90028A2D1C8F80070BFF365
:1050C0004F8FBFF36F8F9BE72046FFF773F900F018
:1050D0009DF995E704ED00E02DE9F0410C4605004F
:1050E0000FD0B4B1FFF7CCFB1C4B5A696E6818683F
:1050F000911B002790F8520098B1186880F8527000
:105100001AE0502080F31188BFF34F8FBFF36F8FE9
:10511000FEE7502080F31188BFF34F8FBFF36F8FEE
:10512000FEE72068B0F1FF3F08D0D5F800C09B6AC9
:105130009C4509D0964207D8012400E00024FFF7DF
:10514000BFFB2046BDE8F081884205D9401A2060A7
:105150002846FFF78FFCF1E72760EDE728000020E5
:105160002DE9FF5F8346DDE90E87994616468A469C
:105170009000FFF755F905001CD05420FFF750F9B7
:10518000040014D00020256384F85100CDE90240CA
:10519000CDE900874B46324651465846FEF707FF99
:1051A0002046FEF7ABFD012004B0BDE8F09F284685
:1051B000FFF79AFB4FF0FF30F6E7F0B585B0DDE979
:1051C0000B640A9DA6B1DCB1542700972663022622
:1051D00084F85160002604AFCDE90246CDE90057BE
:1051E000FEF7E5FE2046FEF789FD049805B0F0BD08
:1051F000502080F31188BFF34F8FBFF36F8FFEE70E
:10520000502080F31188BFF34F8FBFF36F8FFEE7FD
:105210000548C16919B1806B18B1002070470120A1
:1052200070470220704700002800002001484069B4
:1052300070470000280000202DE9F0412E4C002787
:10524000A06B40B1206A401C2062606A00B1012757
:105250003846BDE8F0816669761C666113D16068E6
:10526000006838B1502080F31188BFF34F8FBFF32F
:105270006F8FFEE76068A1686160A060A06A401C53
:10528000A062FFF717F8206BDFF87080864209D321
:105290006068006880B16068C068C56868688642F8
:1052A0000DD220632068C06A00EB800158F821000D
:1052B0000128CAD90127C8E74FF0FF30F1E7281DC0
:1052C000FFF772FAA86A18B105F11800FFF76CFA37
:1052D000E86A0121A26981401143A16100EB8001CC
:1052E00008EB8100291DFFF7BFFAE86A2168C96A47
:1052F0008842CDD30127CBE728000020080B0020EF
:1053000070B504004FF0000140D0214D2868844260
:1053100007D0502080F31188BFF34F8FBFF36F8FFA
:10532000FEE7A06C38B1401EA064636CE26A9A424A
:105330002CD040B12AE0502080F31188BFF34F8F6A
:10534000BFF36F8FFEE7201DFFF72EFA114A0121F0
:1053500050B9E06A00EB800352F8233023B9AB69FF
:1053600001FA00F08343AB61606CE062C0F10700BA
:10537000A061E06AAB6981401943A96100EB80003C
:1053800002EB8000211DFFF76FFA0121084670BD76
:1053900028000020080B00202DE9F041C068C468F7
:1053A000ACB104F118000746FFF7FEF9154DA86BE4
:1053B0000126A0B139461448FFF756FAE06A296879
:1053C000C96A88421CD901206E62BDE8F081502074
:1053D00080F31188BFF34F8FBFF36F8FFEE7201D5F
:1053E000FFF7E2F9E16AAA6906FA01F01043A86141
:1053F00001EB81000449B43901EB8000211DDBE79A
:105400000020E2E728000020BC0B00202DE9F04737
:105410002C4D00242746A86B38B1FFF731FAA86B52
:10542000401EA863A86B40B146E0502080F311886D
:10543000BFF34F8FBFF36F8FFEE72969224E012024
:10544000D1B3A6F1B40980463068E8B1F068C46809
:1054500004F11800FFF7A8F9201DFFF7A5F9E06A8D
:10546000AA6908FA00F11143A96100EB800109EB78
:105470008100211DFFF7F8F9E06A2968C96A8842AE
:10548000E2D3C5F82480DFE70CB1FEF713FF2C6AE6
:1054900044B14646FFF7D0FE00B16E62641EF9D1FA
:1054A00000202862686A38B1084901273807086077
:1054B000BFF34F8FBFF36F8FFFF702FA3846BDE897
:1054C000F087000028000020BC0B002004ED00E065
:1054D0002DE9FC4781461E46174688462C200A9D2A
:1054E000FEF79EFF04000AD0CDE9005433463A4649
:1054F00041464846FEF7ABFD002084F828002046D0
:10550000BDE8FC877CB52C26DDE90654009644B145
:10551000CDE90054FEF79BFD012084F828002046C9
:105520007CBD502080F31188BFF34F8FBFF36F8F86
:10553000FEE7000010B586B0FEF748FC114CA068ED
:10554000B8B100200390049005AA04A903A8FFF7AE
:1055500059F9DDE9032102208DE8070000230AA1A3
:105560000B48059AFFF729FEE06010B106B0012054
:1055700010BD502080F31188BFF34F8FBFF36F8FA2
:10558000FEE7000064000020546D72205376630033
:10559000914300082DE9FF411E46134602000A9D73
:1055A0004FF0000016D0144CA768002F0FD0CDE9A3
:1055B00000130292062917DAFFF72AFE02284FF09D
:1055C00000030FD000226946A068FFF7DBFB04B0A0
:1055D000BDE8F081502080F31188BFF34F8FBFF3F7
:1055E0006F8FFEE72A46EEE70023324669463846CB
:1055F000FFF778FCEBE700006400002090EA010F61
:1056000048BF81F0004100F15882421A3CBF801A25
:1056100089184FEAD0524FF07F4C1CEA410FA2EBA1
:10562000D15318BF9CEA026F00F03B804FF0004C52
:105630004CEA00204CEA012121FA03FC10EB0C0C8F
:105640001ED202F1FF325FEA1C2040EBC25038BF8D
:1056500070471CF07F0F4FEA400C18BFBCF17F4F22
:1056600038BF7047C3F12003994008BF20F0010004
:10567000BCF17F4F38BF7047A0F1C04000F011BAB5
:105680004FEA3C00000A40EBC25028BF1CF0FF0F5D
:105690004FEA400CE6D018BFBCF17F4F38BF7047CF
:1056A000EAE79CEA026F05D010EA5C0F08BF00F041
:1056B0000040704710B500F0AEF900BF64FBBE3E7D
:1056C0004FF47F0C1CEAD0121EBF1CEAD11392EAE1
:1056D0000C0F93EA0C0F00F0858090EA010F48BF91
:1056E00042F4807240F4000C41F400002CF07F4141
:1056F00020F07F4000B58142A2EB03020FF2081CAC
:10570000ACEB504EC0F100009EF800E04FEA4E0EA8
:1057100000FB0EFC38BF49004FEA2C1C02F5FA02D0
:105720000CFB0EF34FEACE1E4FEA112C4FEAC121BB
:105730000EEB635E42EB22420EFB0CFC4FEA1C5365
:1057400000FB03114FEA112C4FEA01310EFB0CFC58
:105750004FEADC4C00FB0C11C14228BF09184CEB8E
:1057600003335DF804EB10EB410143EBC250B2F59B
:105770007C0F38BF704729D512F0F00F1CBF00F125
:10578000C04000F000407047008182838485868796
:1057900088898B8C8D8E8F919293959697999A9CF0
:1057A0009D9FA0A2A3A5A7A8AAACAEB0B2B3B5B75F
:1057B000B9BCBEC0C2C5C7C9CCCED1D4D7D9DCDF35
:1057C000E2E6E9ECF0F3F7FAFE0000004FEA400CE5
:1057D0000CF1807CBCF17E4F28BF7047B0F1C04017
:1057E00000F05FB990EA010F0CEAD11348BF42F410
:1057F0008072624538BF634507D213F47F0F16D01D
:1058000080EA010000F00040704710B500F003F995
:10581000097EFC3E00F005B880EA010000F000407F
:10582000704780EA010000F0004000F03AB912F43D
:105830007F0F04BF0248704780EA010000F031B9D1
:105840000000C07F41000B0ED3F19E0208D950F436
:1058500000034FEA032323FA02F048BF4042704797
:1058600010B500F0D8F800BF49922480002070479E
:105870006FF0004282EA200070470000C10DD1F1B4
:105880009E0206DB4FEA002343F0004323FA02F0B6
:105890007047004207D54FEA4001B1F1FE4F02D2F6
:1058A0004FF00000704710B500F0B5F84992248021
:1058B000002070476FEA20007047000010F00041A0
:1058C00048BF4042B0FA80F310FA03F2C3F19D03DF
:1058D0000BD051EAC35101EB1220530638BF704779
:1058E00000F1010008BF20F001007047B0FA80F31A
:1058F00010FA03F2C3F19D030AD0D90501EB12207F
:10590000530638BF704700F1010008BF20F00100C6
:10591000704700004FF47F0C1CEAD0121EBF1CEA37
:10592000D11392EA0C0F93EA0C0F00F0478090EA33
:10593000010F48BF42F480724FF0004C4CEA002047
:105940004CEA012102EB0302A0FB0113A2F50002C5
:10595000002918BF43F001035B0028BF4FEA33035F
:1059600042EB22425FEA132C4CEBC2502EBFBCEB41
:10597000436FB2F57C0F70474FEA036CBCF1004FE8
:1059800008BF20F00100B2F57C0F38BF70470BD57F
:1059900082F0FF0212F5803FC8BF704700F1C0409F
:1059A000D8BF00F00040704700F5000C5FEA4C0CD7
:1059B00048BF7047B0F1C04000F073B890EA010FE3
:1059C0000CEAD11348BF42F48072624538BF634588
:1059D00004D280EA010000F00040704710B500F0EA
:1059E0001AF800BF8900013E00F007B800F009B8BE
:1059F0005FEA410C5FEA1C6C08D080EA010000F00D
:105A000050B85FEA400C5FEA1C6CF6D14FF00040E2
:105A1000A0F5800070470EF1020E2EF0030E5EF826
:105A2000044B244204D44FEA4102B2F17F4F11D813
:105A30004FEA4003B3F17F4F0CD80ED14FEAD07C30
:105A4000B2F17F4F0CEB4C0C0CF1020C08BF4CEB8D
:105A5000D17C04E04FF0080C01E04FEAD17C0CEB64
:105A60004C0324FA03F404F00704B4F1040C06D246
:105A70000EEB840CBDE810404CF0010C6047DFE8F1
:105A80000CF0070802024FF00040A0F5800010BDA6
:105A90000846420018BFD2F1807288BF00F0004073
:105AA00010BDFF2141EAD050C005704790EA010FB8
:105AB00048BF81F000413FF5A8AD421A04D882F0FA
:105AC0000042A0EB020011444FEAD0524FF07F4C4D
:105AD0001CEA410FA2EBD15318BF9CEA026F4AD0D7
